{
  "_format": "hh-sol-artifact-1",
  "contractName": "TokenFactory",
  "sourceName": "contracts/blockdev/TokenFactory.sol",
  "abi": [
    {
      "anonymous": false,
      "inputs": [
        {
          "indexed": true,
          "internalType": "address",
          "name": "owner",
          "type": "address"
        },
        {
          "indexed": true,
          "internalType": "address",
          "name": "tokenAddress",
          "type": "address"
        },
        {
          "indexed": false,
          "internalType": "uint256",
          "name": "totalSupply",
          "type": "uint256"
        }
      ],
      "name": "createTokenEvent",
      "type": "event"
    },
    {
      "inputs": [
        {
          "internalType": "address",
          "name": "initialOwner",
          "type": "address"
        },
        {
          "internalType": "uint256",
          "name": "initialSupply",
          "type": "uint256"
        },
        {
          "internalType": "string",
          "name": "tokenName",
          "type": "string"
        },
        {
          "internalType": "string",
          "name": "tokenSymbol",
          "type": "string"
        }
      ],
      "name": "createToken",
      "outputs": [
        {
          "internalType": "address",
          "name": "",
          "type": "address"
        }
      ],
      "stateMutability": "nonpayable",
      "type": "function"
    },
    {
      "inputs": [
        {
          "internalType": "uint256",
          "name": "",
          "type": "uint256"
        }
      ],
      "name": "createdTokens",
      "outputs": [
        {
          "internalType": "address",
          "name": "",
          "type": "address"
        }
      ],
      "stateMutability": "view",
      "type": "function"
    },
    {
      "inputs": [],
      "name": "getAllTokens",
      "outputs": [
        {
          "internalType": "address[]",
          "name": "",
          "type": "address[]"
        }
      ],
      "stateMutability": "view",
      "type": "function"
    },
    {
      "inputs": [],
      "name": "getTokensCount",
      "outputs": [
        {
          "internalType": "uint256",
          "name": "",
          "type": "uint256"
        }
      ],
      "stateMutability": "view",
      "type": "function"
    }
  ],
  "bytecode": "0x6080604052348015600f57600080fd5b506129528061001f6000396000f3fe608060405234801561001057600080fd5b506004361061004c5760003560e01c80632a5c792a146100515780632b4b40171461006f5780633962f82d1461009f578063d782d647146100bd575b600080fd5b6100596100ed565b60405161006691906103d6565b60405180910390f35b610089600480360381019061008491906105b4565b61017b565b6040516100969190610662565b60405180910390f35b6100a761028e565b6040516100b4919061068c565b60405180910390f35b6100d760048036038101906100d291906106a7565b61029a565b6040516100e49190610662565b60405180910390f35b6060600080548060200260200160405190810160405280929190818152602001828054801561017157602002820191906000526020600020905b8160009054906101000a900473ffffffffffffffffffffffffffffffffffffffff1673ffffffffffffffffffffffffffffffffffffffff1681526020019060010190808311610127575b5050505050905090565b6000808585858560405161018e906102d9565b61019b9493929190610753565b604051809103906000f0801580156101b7573d6000803e3d6000fd5b5090506000819080600181540180825580915050600190039060005260206000200160009091909190916101000a81548173ffffffffffffffffffffffffffffffffffffffff021916908373ffffffffffffffffffffffffffffffffffffffff1602179055508073ffffffffffffffffffffffffffffffffffffffff168673ffffffffffffffffffffffffffffffffffffffff167fe4c52ae8e4c65ff60e5f5c56afc55e5a01b0000e291772edf27be1e4d03f00b98760405161027a919061068c565b60405180910390a380915050949350505050565b60008080549050905090565b600081815481106102aa57600080fd5b906000526020600020016000915054906101000a900473ffffffffffffffffffffffffffffffffffffffff1681565b612176806107a783390190565b600081519050919050565b600082825260208201905092915050565b6000819050602082019050919050565b600073ffffffffffffffffffffffffffffffffffffffff82169050919050565b600061033d82610312565b9050919050565b61034d81610332565b82525050565b600061035f8383610344565b60208301905092915050565b6000602082019050919050565b6000610383826102e6565b61038d81856102f1565b935061039883610302565b8060005b838110156103c95781516103b08882610353565b97506103bb8361036b565b92505060018101905061039c565b5085935050505092915050565b600060208201905081810360008301526103f08184610378565b905092915050565b6000604051905090565b600080fd5b600080fd5b61041581610332565b811461042057600080fd5b50565b6000813590506104328161040c565b92915050565b6000819050919050565b61044b81610438565b811461045657600080fd5b50565b60008135905061046881610442565b92915050565b600080fd5b600080fd5b6000601f19601f8301169050919050565b7f4e487b7100000000000000000000000000000000000000000000000000000000600052604160045260246000fd5b6104c182610478565b810181811067ffffffffffffffff821117156104e0576104df610489565b5b80604052505050565b60006104f36103f8565b90506104ff82826104b8565b919050565b600067ffffffffffffffff82111561051f5761051e610489565b5b61052882610478565b9050602081019050919050565b82818337600083830152505050565b600061055761055284610504565b6104e9565b90508281526020810184848401111561057357610572610473565b5b61057e848285610535565b509392505050565b600082601f83011261059b5761059a61046e565b5b81356105ab848260208601610544565b91505092915050565b600080600080608085870312156105ce576105cd610402565b5b60006105dc87828801610423565b94505060206105ed87828801610459565b935050604085013567ffffffffffffffff81111561060e5761060d610407565b5b61061a87828801610586565b925050606085013567ffffffffffffffff81111561063b5761063a610407565b5b61064787828801610586565b91505092959194509250565b61065c81610332565b82525050565b60006020820190506106776000830184610653565b92915050565b61068681610438565b82525050565b60006020820190506106a1600083018461067d565b92915050565b6000602082840312156106bd576106bc610402565b5b60006106cb84828501610459565b91505092915050565b600081519050919050565b600082825260208201905092915050565b60005b8381101561070e5780820151818401526020810190506106f3565b60008484015250505050565b6000610725826106d4565b61072f81856106df565b935061073f8185602086016106f0565b61074881610478565b840191505092915050565b60006080820190506107686000830187610653565b610775602083018661067d565b8181036040830152610787818561071a565b9050818103606083015261079b818461071a565b90509594505050505056fe608060405234801561001057600080fd5b50604051612176380380612176833981810160405281019061003291906106aa565b83828281600390816100449190610960565b5080600490816100549190610960565b505050600073ffffffffffffffffffffffffffffffffffffffff168173ffffffffffffffffffffffffffffffffffffffff16036100c95760006040517f1e4fbdf70000000000000000000000000000000000000000000000000000000081526004016100c09190610a41565b60405180910390fd5b6100d88161012560201b60201c565b506100e88461012560201b60201c565b61011c846100fa6101eb60201b60201c565b600a6101069190610bcb565b856101119190610c16565b6101f460201b60201c565b50505050610ced565b6000600560009054906101000a900473ffffffffffffffffffffffffffffffffffffffff16905081600560006101000a81548173ffffffffffffffffffffffffffffffffffffffff021916908373ffffffffffffffffffffffffffffffffffffffff1602179055508173ffffffffffffffffffffffffffffffffffffffff168173ffffffffffffffffffffffffffffffffffffffff167f8be0079c531659141344cd1fd0a4f28419497f9722a3daafe3b4186f6b6457e060405160405180910390a35050565b60006012905090565b600073ffffffffffffffffffffffffffffffffffffffff168273ffffffffffffffffffffffffffffffffffffffff16036102665760006040517fec442f0500000000000000000000000000000000000000000000000000000000815260040161025d9190610a41565b60405180910390fd5b6102786000838361027c60201b60201c565b5050565b600073ffffffffffffffffffffffffffffffffffffffff168373ffffffffffffffffffffffffffffffffffffffff16036102ce5780600260008282546102c29190610c58565b925050819055506103a1565b60008060008573ffffffffffffffffffffffffffffffffffffffff1673ffffffffffffffffffffffffffffffffffffffff1681526020019081526020016000205490508181101561035a578381836040517fe450d38c00000000000000000000000000000000000000000000000000000000815260040161035193929190610c9b565b60405180910390fd5b8181036000808673ffffffffffffffffffffffffffffffffffffffff1673ffffffffffffffffffffffffffffffffffffffff16815260200190815260200160002081905550505b600073ffffffffffffffffffffffffffffffffffffffff168273ffffffffffffffffffffffffffffffffffffffff16036103ea5780600260008282540392505081905550610437565b806000808473ffffffffffffffffffffffffffffffffffffffff1673ffffffffffffffffffffffffffffffffffffffff168152602001908152602001600020600082825401925050819055505b8173ffffffffffffffffffffffffffffffffffffffff168373ffffffffffffffffffffffffffffffffffffffff167fddf252ad1be2c89b69c2b068fc378daa952ba7f163c4a11628f55a4df523b3ef836040516104949190610cd2565b60405180910390a3505050565b6000604051905090565b600080fd5b600080fd5b600073ffffffffffffffffffffffffffffffffffffffff82169050919050565b60006104e0826104b5565b9050919050565b6104f0816104d5565b81146104fb57600080fd5b50565b60008151905061050d816104e7565b92915050565b6000819050919050565b61052681610513565b811461053157600080fd5b50565b6000815190506105438161051d565b92915050565b600080fd5b600080fd5b6000601f19601f8301169050919050565b7f4e487b7100000000000000000000000000000000000000000000000000000000600052604160045260246000fd5b61059c82610553565b810181811067ffffffffffffffff821117156105bb576105ba610564565b5b80604052505050565b60006105ce6104a1565b90506105da8282610593565b919050565b600067ffffffffffffffff8211156105fa576105f9610564565b5b61060382610553565b9050602081019050919050565b60005b8381101561062e578082015181840152602081019050610613565b60008484015250505050565b600061064d610648846105df565b6105c4565b9050828152602081018484840111156106695761066861054e565b5b610674848285610610565b509392505050565b600082601f83011261069157610690610549565b5b81516106a184826020860161063a565b91505092915050565b600080600080608085870312156106c4576106c36104ab565b5b60006106d2878288016104fe565b94505060206106e387828801610534565b935050604085015167ffffffffffffffff811115610704576107036104b0565b5b6107108782880161067c565b925050606085015167ffffffffffffffff811115610731576107306104b0565b5b61073d8782880161067c565b91505092959194509250565b600081519050919050565b7f4e487b7100000000000000000000000000000000000000000000000000000000600052602260045260246000fd5b6000600282049050600182168061079b57607f821691505b6020821081036107ae576107ad610754565b5b50919050565b60008190508160005260206000209050919050565b60006020601f8301049050919050565b600082821b905092915050565b6000600883026108167fffffffffffffffffffffffffffffffffffffffffffffffffffffffffffffffff826107d9565b61082086836107d9565b95508019841693508086168417925050509392505050565b6000819050919050565b600061085d61085861085384610513565b610838565b610513565b9050919050565b6000819050919050565b61087783610842565b61088b61088382610864565b8484546107e6565b825550505050565b600090565b6108a0610893565b6108ab81848461086e565b505050565b5b818110156108cf576108c4600082610898565b6001810190506108b1565b5050565b601f821115610914576108e5816107b4565b6108ee846107c9565b810160208510156108fd578190505b610911610909856107c9565b8301826108b0565b50505b505050565b600082821c905092915050565b600061093760001984600802610919565b1980831691505092915050565b60006109508383610926565b9150826002028217905092915050565b61096982610749565b67ffffffffffffffff81111561098257610981610564565b5b61098c8254610783565b6109978282856108d3565b600060209050601f8311600181146109ca57600084156109b8578287015190505b6109c28582610944565b865550610a2a565b601f1984166109d8866107b4565b60005b82811015610a00578489015182556001820191506020850194506020810190506109db565b86831015610a1d5784890151610a19601f891682610926565b8355505b6001600288020188555050505b505050505050565b610a3b816104d5565b82525050565b6000602082019050610a566000830184610a32565b92915050565b7f4e487b7100000000000000000000000000000000000000000000000000000000600052601160045260246000fd5b60008160011c9050919050565b6000808291508390505b6001851115610ae257808604811115610abe57610abd610a5c565b5b6001851615610acd5780820291505b8081029050610adb85610a8b565b9450610aa2565b94509492505050565b600082610afb5760019050610bb7565b81610b095760009050610bb7565b8160018114610b1f5760028114610b2957610b58565b6001915050610bb7565b60ff841115610b3b57610b3a610a5c565b5b8360020a915084821115610b5257610b51610a5c565b5b50610bb7565b5060208310610133831016604e8410600b8410161715610b8d5782820a905083811115610b8857610b87610a5c565b5b610bb7565b610b9a8484846001610a98565b92509050818404811115610bb157610bb0610a5c565b5b81810290505b9392505050565b600060ff82169050919050565b6000610bd682610513565b9150610be183610bbe565b9250610c0e7fffffffffffffffffffffffffffffffffffffffffffffffffffffffffffffffff8484610aeb565b905092915050565b6000610c2182610513565b9150610c2c83610513565b9250828202610c3a81610513565b91508282048414831517610c5157610c50610a5c565b5b5092915050565b6000610c6382610513565b9150610c6e83610513565b9250828201905080821115610c8657610c85610a5c565b5b92915050565b610c9581610513565b82525050565b6000606082019050610cb06000830186610a32565b610cbd6020830185610c8c565b610cca6040830184610c8c565b949350505050565b6000602082019050610ce76000830184610c8c565b92915050565b61147a80610cfc6000396000f3fe608060405234801561001057600080fd5b50600436106100cf5760003560e01c8063715018a61161008c57806395d89b411161006657806395d89b4114610202578063a9059cbb14610220578063dd62ed3e14610250578063f2fde38b14610280576100cf565b8063715018a6146101be5780637b47ec1a146101c85780638da5cb5b146101e4576100cf565b806306fdde03146100d4578063095ea7b3146100f257806318160ddd1461012257806323b872dd14610140578063313ce5671461017057806370a082311461018e575b600080fd5b6100dc61029c565b6040516100e99190610e75565b60405180910390f35b61010c60048036038101906101079190610f30565b61032e565b6040516101199190610f8b565b60405180910390f35b61012a610351565b6040516101379190610fb5565b60405180910390f35b61015a60048036038101906101559190610fd0565b61035b565b6040516101679190610f8b565b60405180910390f35b61017861038a565b604051610185919061103f565b60405180910390f35b6101a860048036038101906101a3919061105a565b610393565b6040516101b59190610fb5565b60405180910390f35b6101c66103db565b005b6101e260048036038101906101dd9190611087565b6103ef565b005b6101ec61048b565b6040516101f991906110c3565b60405180910390f35b61020a6104b5565b6040516102179190610e75565b60405180910390f35b61023a60048036038101906102359190610f30565b610547565b6040516102479190610f8b565b60405180910390f35b61026a600480360381019061026591906110de565b61056a565b6040516102779190610fb5565b60405180910390f35b61029a6004803603810190610295919061105a565b6105f1565b005b6060600380546102ab9061114d565b80601f01602080910402602001604051908101604052809291908181526020018280546102d79061114d565b80156103245780601f106102f957610100808354040283529160200191610324565b820191906000526020600020905b81548152906001019060200180831161030757829003601f168201915b5050505050905090565b600080610339610677565b905061034681858561067f565b600191505092915050565b6000600254905090565b600080610366610677565b9050610373858285610691565b61037e858585610726565b60019150509392505050565b60006012905090565b60008060008373ffffffffffffffffffffffffffffffffffffffff1673ffffffffffffffffffffffffffffffffffffffff168152602001908152602001600020549050919050565b6103e361081a565b6103ed60006108a1565b565b6103f761081a565b6103ff61038a565b600a61040b91906112e0565b81610416919061132b565b61041f33610393565b1015610460576040517f08c379a0000000000000000000000000000000000000000000000000000000008152600401610457906113b9565b60405180910390fd5b6104883361046c61038a565b600a61047891906112e0565b83610483919061132b565b610967565b50565b6000600560009054906101000a900473ffffffffffffffffffffffffffffffffffffffff16905090565b6060600480546104c49061114d565b80601f01602080910402602001604051908101604052809291908181526020018280546104f09061114d565b801561053d5780601f106105125761010080835404028352916020019161053d565b820191906000526020600020905b81548152906001019060200180831161052057829003601f168201915b5050505050905090565b600080610552610677565b905061055f818585610726565b600191505092915050565b6000600160008473ffffffffffffffffffffffffffffffffffffffff1673ffffffffffffffffffffffffffffffffffffffff16815260200190815260200160002060008373ffffffffffffffffffffffffffffffffffffffff1673ffffffffffffffffffffffffffffffffffffffff16815260200190815260200160002054905092915050565b6105f961081a565b600073ffffffffffffffffffffffffffffffffffffffff168173ffffffffffffffffffffffffffffffffffffffff160361066b5760006040517f1e4fbdf700000000000000000000000000000000000000000000000000000000815260040161066291906110c3565b60405180910390fd5b610674816108a1565b50565b600033905090565b61068c83838360016109e9565b505050565b600061069d848461056a565b90507fffffffffffffffffffffffffffffffffffffffffffffffffffffffffffffffff8110156107205781811015610710578281836040517ffb8f41b2000000000000000000000000000000000000000000000000000000008152600401610707939291906113d9565b60405180910390fd5b61071f848484840360006109e9565b5b50505050565b600073ffffffffffffffffffffffffffffffffffffffff168373ffffffffffffffffffffffffffffffffffffffff16036107985760006040517f96c6fd1e00000000000000000000000000000000000000000000000000000000815260040161078f91906110c3565b60405180910390fd5b600073ffffffffffffffffffffffffffffffffffffffff168273ffffffffffffffffffffffffffffffffffffffff160361080a5760006040517fec442f0500000000000000000000000000000000000000000000000000000000815260040161080191906110c3565b60405180910390fd5b610815838383610bc0565b505050565b610822610677565b73ffffffffffffffffffffffffffffffffffffffff1661084061048b565b73ffffffffffffffffffffffffffffffffffffffff161461089f57610863610677565b6040517f118cdaa700000000000000000000000000000000000000000000000000000000815260040161089691906110c3565b60405180910390fd5b565b6000600560009054906101000a900473ffffffffffffffffffffffffffffffffffffffff16905081600560006101000a81548173ffffffffffffffffffffffffffffffffffffffff021916908373ffffffffffffffffffffffffffffffffffffffff1602179055508173ffffffffffffffffffffffffffffffffffffffff168173ffffffffffffffffffffffffffffffffffffffff167f8be0079c531659141344cd1fd0a4f28419497f9722a3daafe3b4186f6b6457e060405160405180910390a35050565b600073ffffffffffffffffffffffffffffffffffffffff168273ffffffffffffffffffffffffffffffffffffffff16036109d95760006040517f96c6fd1e0000000000000000000000000000000000000000000000000000000081526004016109d091906110c3565b60405180910390fd5b6109e582600083610bc0565b5050565b600073ffffffffffffffffffffffffffffffffffffffff168473ffffffffffffffffffffffffffffffffffffffff1603610a5b5760006040517fe602df05000000000000000000000000000000000000000000000000000000008152600401610a5291906110c3565b60405180910390fd5b600073ffffffffffffffffffffffffffffffffffffffff168373ffffffffffffffffffffffffffffffffffffffff1603610acd5760006040517f94280d62000000000000000000000000000000000000000000000000000000008152600401610ac491906110c3565b60405180910390fd5b81600160008673ffffffffffffffffffffffffffffffffffffffff1673ffffffffffffffffffffffffffffffffffffffff16815260200190815260200160002060008573ffffffffffffffffffffffffffffffffffffffff1673ffffffffffffffffffffffffffffffffffffffff168152602001908152602001600020819055508015610bba578273ffffffffffffffffffffffffffffffffffffffff168473ffffffffffffffffffffffffffffffffffffffff167f8c5be1e5ebec7d5bd14f71427d1e84f3dd0314c0f7b2291e5b200ac8c7c3b92584604051610bb19190610fb5565b60405180910390a35b50505050565b600073ffffffffffffffffffffffffffffffffffffffff168373ffffffffffffffffffffffffffffffffffffffff1603610c12578060026000828254610c069190611410565b92505081905550610ce5565b60008060008573ffffffffffffffffffffffffffffffffffffffff1673ffffffffffffffffffffffffffffffffffffffff16815260200190815260200160002054905081811015610c9e578381836040517fe450d38c000000000000000000000000000000000000000000000000000000008152600401610c95939291906113d9565b60405180910390fd5b8181036000808673ffffffffffffffffffffffffffffffffffffffff1673ffffffffffffffffffffffffffffffffffffffff16815260200190815260200160002081905550505b600073ffffffffffffffffffffffffffffffffffffffff168273ffffffffffffffffffffffffffffffffffffffff1603610d2e5780600260008282540392505081905550610d7b565b806000808473ffffffffffffffffffffffffffffffffffffffff1673ffffffffffffffffffffffffffffffffffffffff168152602001908152602001600020600082825401925050819055505b8173ffffffffffffffffffffffffffffffffffffffff168373ffffffffffffffffffffffffffffffffffffffff167fddf252ad1be2c89b69c2b068fc378daa952ba7f163c4a11628f55a4df523b3ef83604051610dd89190610fb5565b60405180910390a3505050565b600081519050919050565b600082825260208201905092915050565b60005b83811015610e1f578082015181840152602081019050610e04565b60008484015250505050565b6000601f19601f8301169050919050565b6000610e4782610de5565b610e518185610df0565b9350610e61818560208601610e01565b610e6a81610e2b565b840191505092915050565b60006020820190508181036000830152610e8f8184610e3c565b905092915050565b600080fd5b600073ffffffffffffffffffffffffffffffffffffffff82169050919050565b6000610ec782610e9c565b9050919050565b610ed781610ebc565b8114610ee257600080fd5b50565b600081359050610ef481610ece565b92915050565b6000819050919050565b610f0d81610efa565b8114610f1857600080fd5b50565b600081359050610f2a81610f04565b92915050565b60008060408385031215610f4757610f46610e97565b5b6000610f5585828601610ee5565b9250506020610f6685828601610f1b565b9150509250929050565b60008115159050919050565b610f8581610f70565b82525050565b6000602082019050610fa06000830184610f7c565b92915050565b610faf81610efa565b82525050565b6000602082019050610fca6000830184610fa6565b92915050565b600080600060608486031215610fe957610fe8610e97565b5b6000610ff786828701610ee5565b935050602061100886828701610ee5565b925050604061101986828701610f1b565b9150509250925092565b600060ff82169050919050565b61103981611023565b82525050565b60006020820190506110546000830184611030565b92915050565b6000602082840312156110705761106f610e97565b5b600061107e84828501610ee5565b91505092915050565b60006020828403121561109d5761109c610e97565b5b60006110ab84828501610f1b565b91505092915050565b6110bd81610ebc565b82525050565b60006020820190506110d860008301846110b4565b92915050565b600080604083850312156110f5576110f4610e97565b5b600061110385828601610ee5565b925050602061111485828601610ee5565b9150509250929050565b7f4e487b7100000000000000000000000000000000000000000000000000000000600052602260045260246000fd5b6000600282049050600182168061116557607f821691505b6020821081036111785761117761111e565b5b50919050565b7f4e487b7100000000000000000000000000000000000000000000000000000000600052601160045260246000fd5b60008160011c9050919050565b6000808291508390505b6001851115611204578086048111156111e0576111df61117e565b5b60018516156111ef5780820291505b80810290506111fd856111ad565b94506111c4565b94509492505050565b60008261121d57600190506112d9565b8161122b57600090506112d9565b8160018114611241576002811461124b5761127a565b60019150506112d9565b60ff84111561125d5761125c61117e565b5b8360020a9150848211156112745761127361117e565b5b506112d9565b5060208310610133831016604e8410600b84101617156112af5782820a9050838111156112aa576112a961117e565b5b6112d9565b6112bc84848460016111ba565b925090508184048111156112d3576112d261117e565b5b81810290505b9392505050565b60006112eb82610efa565b91506112f683611023565b92506113237fffffffffffffffffffffffffffffffffffffffffffffffffffffffffffffffff848461120d565b905092915050565b600061133682610efa565b915061134183610efa565b925082820261134f81610efa565b915082820484148315176113665761136561117e565b5b5092915050565b7f4572726f723a20796f75206e656564206d6f726520746f6b656e730000000000600082015250565b60006113a3601b83610df0565b91506113ae8261136d565b602082019050919050565b600060208201905081810360008301526113d281611396565b9050919050565b60006060820190506113ee60008301866110b4565b6113fb6020830185610fa6565b6114086040830184610fa6565b949350505050565b600061141b82610efa565b915061142683610efa565b925082820190508082111561143e5761143d61117e565b5b9291505056fea26469706673582212205568ff04276665baba70f2df1ec54b36e9f88e20b30da8c94365da25ac18062664736f6c634300081c0033a2646970667358221220c43f73d9afdfaed712f27677ce9d80b883a62897c2af767e00f5ff211a6f8acc64736f6c634300081c0033",
  "linkReferences": {},
  "deployedLinkReferences": {}
}